S00F000032302D554152542E737265634A
S21440000038390020310840002D0840002D084000B7
S2144000102D0840002D0840002D084000000000003C
S2144000200000000000000000000000002D08400016
S2144000302D084000000000002D0840002D0840001C
S2144000402D0840002D0840002D0840002D08400097
S2144000502D0840002D0840002D0840002D08400087
S214400060D10B40002D08400000000000E505400090
S214400070F90540000D0640002D0840002D084000C0
S21440008000000000000000002D0840002D08400041
S2144000902D0840002D0840002D084000D10C40009F
S2144000A02D0840002D0840002D0840002D08400037
S2144000B02D0840002D0840002D0840002D08400027
S2144000C02D0840002D0840002D08400010B5054C76
S2144000D0237833B9044B13B10448AFF300800123AF
S2144000E0237010BD4408002000000000281E400079
S2144000F0084B10B51BB108480849AFF300800848C4
S214400100036803B910BD074B002BFBD0BDE8104079
S214400110184700BF00000000281E40004808002086
S214400120281E40000000000010B50E480E4B9847B1
S21440013000203E210D4B98470D4CA0470028FCD090
S2144001400C4B98470C4A0D4B9A620D4CA047002822
S214400150FCD010200B4B98470B4B98470148024B5E
S214400160984710BD000E2707F50940008906400055
S214400170DD064000ED064000013F132000040E401F
S214400180FD06400021064000E1084000A8B92DE9E0
S214400190F0410C469046002A0ADD8F18084E094D5D
S2144001A0306821462B6898470134BC42F8D101E0BC
S2144001B04FF000084046BDE8F0814FF0FF307047F2
S2144001C018090020100900200138022818D82DE907
S2144001D0F0410E46144682B10D46DFF838800C4F8B
S2144001E0D8F8000015F8011B3B68984700280ADB42
S2144001F0A81B013CF4D1BDE8F0810020BDE8F081A9
S2144002004FF0FF3070474FF0FF30BDE8F08100BF41
S214400210140900201809002010B54FF40042104B76
S2144002205A600B200F4CA0470C20A0470D20A0473B
S21440023013204FF060510C4CA04714204FF06051F3
S214400240A04723200949A0474C200949A047094810
S2144002504FF4C0614FF00062074B984710BD00BF97
S21440026050140E400D0740007D03400079000028E2
S21440027059000028000E0E40A1044000016370475C
S214400280416370474264B1F1C05F2FD007D8B1F1E7
S214400290006F14D0B1F1805F1ED039B97047B1F10C
S2144002A0205F37D004D8B1F1005F29D04260704754
S2144002B0B1F1405F2ED0B1F1605F2BD0F6E710B4BD
S2144002C0016F046FD343214019400167416F446F6B
S2144002D021400B4043671AE0036F13430367436FA5
S2144002E0416F0B4023EA02034367DFE7036F016F6A
S2144002F00B4023EA02030367436F13434367D5E784
S214400300036F13430367436F13434367CEE742606D
S2144003105DF8044B704700BF416412F0010F14BFF4
S2144003204166016612F00A0F14BF0162416212F084
S214400330020F02D0C0F8801004E012F0080F18BF79
S214400340C0F8841041610160704700BF10B441643A
S214400350019C0CB1416600E001660BB1016500E00E
S21440036041650AB1016300E04163016101605DF8E7
S214400370044B7047C06C7047806C704770B582B055
S2144003800D46430903F5001303F207735C0201F0C0
S214400390F043B3F1005F47D009D8B3F1805F21D076
S2144003A0B3F1C05F2FD0B3F1006F6FD109E0B3F166
S2144003B0405F55D0B3F1605F52D0B3F1205F44D078
S2144003C064E000F01F000126864020464FF00061A2
S2144003D03246304B984715F0010F14BF66662666C6
S2144003E0012054E000F01F000126864020464FF0D2
S2144003F080513246274B984715F0010F14BF66666A
S2144004002666012043E000F01F0001268640204675
S2144004104FF0C05132461F4B984715F0010F14BF9E
S21440042066662666012032E000F01F000126864000
S21440043020464FF000513246164B984715F0010FB4
S21440044014BF66662666012021E000F01F030126E1
S214400450204606FA03F12A460F4B9847304616E0E8
S21440046000F01F03012605F0605205EA06010091E0
S214400470204606FA03F1B2F1605F14BF0022012263
S214400480C5F38003054CA047304600E0002002B08C
S21440049070BD00BF85024000190340004D03400078
S2144004A070B582B006460D46144602F0F043B3F1EE
S2144004B0005F38D009D8B3F1805F1CD0B3F1C05F7D
S2144004C025D0B3F1006F50D109E0B3F1405F3AD088
S2144004D0B3F1605F37D0B3F1205F30D045E04FF0E6
S2144004E000612A46224B984714F0010F14BF7566E8
S2144004F0356601203AE04FF080512A461C4B98471B
S21440050014F0010F14BF7566356601202EE04FF0DB
S214400510C0512A46164B984714F0010F14BF756613
S2144005203566012022E04FF000512A46104B98478E
S21440053014F0010F14BF75663566012016E00D4BAA
S2144005409847012012E004F0605204F00103009343
S21440055030462946B2F1605F14BF00220122C4F340
S2144005608003054CA047012000E0002002B070BD8B
S21440057085024000190340004D0340002DE9F84332
S21440058081468846124B984705464846114B984741
S214400590054013D0104C04F160062368434508D14B
S2144005A06168294205D0E36840469847636825EA73
S2144005B00305B44202D01034002DEED1074B1B6821
S2144005C023B1074B1B680BB148469847BDE8F883F4
S2144005D07503400079034000640800201C09002091
S2144005E06008002008B502480B21024B984708BD1A
S2144005F0000E0E407D05400008B502480C21024B17
S214400600984708BD00100E407D05400008B50248DA
S2144006100D21024B984708BD00120E407D05400054
S214400620184A136B23F0700318431063936E13F04D
S214400630080F03D009E0013B03D11EE04FF40063EE
S21440064010498A6E12F0080FF5D00E4A136B23F04D
S214400650030343F002031363906E10F0080004D0C7
S21440066000207047013B03D109E04FF40063054981
S2144006708A6E12F0080FF5D07047012070470120AF
S214400680704700BF00040E4038B111490B6A114A4A
S2144006901A40114B13430B6270470D4A136A23F4FA
S2144006A05C1323F0030343F45C1343F00103090295
S2144006B089B20B431362936E13F0010FFBD0044ACA
S2144006C0136A43F09B7343F480331362704700BF52
S2144006D000040E40FCFFC8FE02003701024B986E35
S2144006E000F48030704700BF00040E404FF00052C8
S2144006F0014B9A62704700BF00040E40024B986E52
S21440070000F00200704700BF00040E4022281ED8AA
S2144007101F280CD8114B9A69012383401A409342F4
S21440072017D0012383400D4A1361002070470B4BBE
S214400730D3F808212038012383401A4093420AD038
S21440074001238340054AC2F800310020704701204B
S2144007507047002070470020704700BF00040E40DE
S21440076010B489014318022444504FF0FF31996277
S214400770196A5A605DF8044B704700BF890105232B
S2144007804350704700EB8111CA61704700EB8111FE
S2144007904A62704700EB8111086A704710B4AC2378
S2144007A003600B684A68B3FBF2F31B095C1E4FF606
S2144007B0FE7294420AD803628B68436040F202237A
S2144007C0C0F8203150230360002000E001205DF88F
S2144007D0044B7047436913F0020F1ABFC1610020F3
S2144007E001207047436913F0010F1DBF83690B70EA
S2144007F000200120704700BF816070474069704705
S214400800436913F0020F1DBFC1F30801C161002008
S21440081001207047436913F0010F05D08369C3F385
S21440082008030B600020704701207047FEE700BFBA
S21440083008B5204B204A9A4213D9204B1D4A9A426B
S2144008401FD21146043203339B1A23F003030433AA
S214400850194A134452F8040B41F8040B9A42F9D152
S2144008600FE0144B144A9A420BD2144B114A9A1A70
S214400870134881182AB151F8042943F8042D8142BF
S214400880F9D100BF0F4B104A9A420BD2131D0F4AA4
S214400890D21A22F003021A44043B002143F8041BF8
S2144008A09342FBD10A4B0B4A9A600B4B98470B4B33
S2144008B09847FEE700000020281E4000440800201D
S2144008C0241E400034090020440800203709002038
S2144008D000ED00E000004000E50E4000610D4000E5
S2144008E03D4B1B6B03F00303032B5DD8DFE803F09F
S2144008F0020E2B2B394B5B6913F0800F14BF4FF45D
S21440090000424FF4FA42364B1A604DE0324B1B6AB7
S21440091013F0807F03D0334A314B1A6044E0324AAA
S2144009202F4B1A602C4B1B6A03F07003102B02D01F
S214400930202B04D038E02D4A294B1A6034E0294A4F
S214400940274B1A6030E0244B1B6A13F0807F03D09D
S214400950244A234B1A6012E0234A214B1A601E4B4E
S2144009601B6A03F07003102B02D0202B04D006E045
S2144009701E4A1B4B1A6002E01A4A194B1A60164B65
S2144009801B6B03F00303022B134A07BF936A926A5A
S214400990D36AD26A1248C3F30A41036801FB0333A1
S2144009A0D2B2B3FBF2F303600B4B1B6B03F0700346
S2144009B0702B07D10A4A13680D49A1FB03135B0845
S2144009C013607047044B1A6B0549C2F302120B685A
S2144009D0D3400B60704700BF00040E4010140E401A
S2144009E000000020001BB70000093D0000127A00FE
S2144009F0ABAAAAAA1A4B984207D84FF08063194A66
S214400A00136002F5007213607047174B984206D881
S214400A10164B144A136002F5007213607047144B6D
S214400A20984206D8134B0F4A136002F500721360C3
S214400A307047114B984206D8104B0A4A136002F58D
S214400A400072136070470E4B984294BF4FF00423D9
S214400A500C4B044A136002F500721360704700BFE7
S214400A60FF2C3101000A0E40FF59620200010004CB
S214400A70FF86930300020004FFB3C404000300048F
S214400A80FFE0F50500050004094B1B6813B9094A49
S214400A90074B1A60064B1B681A180749914204DB3D
S214400AA01046034A1060184670474FF0FF307047B4
S214400AB0D408002038390020FC7F02204FF0FF3059
S214400AC0704700BF00207047F0B583B005460C461F
S214400AD000230193184B984207D11F46174E3846BD
S214400AE02146B0470028FAD117E0154B984207D167
S214400AF01E46124D30462146A8470028FAD118E037
S214400B00104B984209D11E460F4D304601A9A847C2
S214400B100028FAD1019B23700BE00C4B9D4208D174
S214400B201E46094D304601A9A8470028FAD1019B28
S214400B30237003B0F0BD00BF00060E40E50740003E
S214400B4000080E4000400240150840000080024069
S214400B5070B50C46184B984208D11E46174D304685
S214400B602146A8470028FAD1012070BD144B984270
S214400B7008D11E46114D30462146A8470028FAD1D6
S214400B80012070BD0F4B984208D11E460E4D304690
S214400B902146A8470028FAD1012070BD0B4B984249
S214400BA008D11E46084D30462146A8470028FAD1AF
S214400BB0012070BD002070BD00060E40D5074000E5
S214400BC000080E40004002400108400000800240FD
S214400BD070B582B00E480F4B98470190019B0E4B64
S214400BE01C780E4B1C440A4E0D4D30462146A847F5
S214400BF00028FAD1084B1B780133DBB2032B02D016
S214400C00054A137002E00022034B1A7002B070BD12
S214400C1000060E40FD074000DB08002020090020AB
S214400C20E507400070B584B01A484FF4C0614FF0F5
S214400C300062194B98470820184DA847184C194B86
S214400C401C60194A194B1A60194A1A4B1A601A4BFB
S214400C5001934FF4E13302934FF40063039308206B
S214400C60A847204601A9154B9847154E3368986803
S214400C700021144DA847336858680021A8472046ED
S214400C800121114B98474FF48072104B1A6004B004
S214400C9070BD00BF000E0E40A10440000D0740008E
S214400CA000060E4018090020510B40001409002091
S214400CB0C90A400010090020000E27079D07400083
S214400CC030040020D10F4000F907400000E100E06A
S214400CD000B583B019480021194B98470190019BF5
S214400CE0184B1B7853B1184B9B6B13F4002F1648C8
S214400CF04FF4002114BF154B154B9847154B1B78E6
S214400D0053B1114B9B6B13F4801F0F484FF4801167
S214400D1014BF0E4B0E4B98470F4B1B7853B10F4BDF
S214400D209B6B13F4801F0D484FF4801114BF074B84
S214400D30074B984703B05DF804FB00BF0000014036
S214400D4095074000DA080020000E0E408102400061
S214400D507D024000D8080020D908002000120E402E
S214400D6080B582B04C4B98474C4B98470B204C4D27
S214400D70A8470D20A8470B20A8474A4F00240094B8
S214400D8038464FF4002101222346474EB047009490
S214400D9038464FF4801101222346B047009443481A
S214400DA04FF4801101222346B047414B9847172005
S214400DB0A847404D2846214644F204023E4B9847F9
S214400DC0284621464FF400423C4B98472846214649
S214400DD010223B4B98473B4B83F817434FF4000297
S214400DE01A6028462146384B9847384C384E3D4680
S214400DF007F580672378312B0CD0322B12D0302B5E
S214400E0013D128464FF40021324B98470022324BEC
S214400E101A700AE028464FF40021B04700222E4BB5
S214400E201A7002E001222C4B1A706378312B0CD0DA
S214400E30322B12D0302B13D128464FF48011254B3D
S214400E4098470022254B1A700AE028464FF4801136
S214400E50B0470022214B1A7002E001221F4B1A7045
S214400E60A378312B0BD0322B12D0302BC2D1384640
S214400E704FF48011B0470022194B1A70BAE7384633
S214400E804FF48011134B98470022154B1A70B1E768
S214400E900122134B1A70ADE72901400019024000A9
S214400EA00D074000000E0E404D03400000120E405D
S214400EB0250C4000000001406107400085074000C7
S214400EC08D07400000E100E07D074000200900203B
S214400ED0810240007D024000DA080020D808002049
S214400EE0D908002070B50F4E0F4D761BB61018BFB0
S214400EF0002405D0013455F8043B9847A642F9D162
S214400F000A4E0B4D761B00F07DFFB61018BF00242E
S214400F1006D0013455F8043B9847A642F9D170BD37
S214400F2070BD00BF101E4000101E4000181E40003E
S214400F30101E400070B4840746D0541E002A41D08C
S214400F40CDB2034602E0621EE4B3144603F8015BEA
S214400F509A07F8D1032C2ED9CDB245EA05250F2C99
S214400F6045EA054519D903F110022646103E0F2ED4
S214400F7042F8105C42F80C5C42F8085C42F8045CAC
S214400F8002F11002F2D8A4F1100222F00F0204F08F
S214400F900F041032032C13440DD91E462246043A41
S214400FA0032A46F8045BFAD8221F22F003020432D2
S214400FB0134404F003042CB1C9B21C4403F8011BCB
S214400FC0A342FBD170BC704714460346C2E700BF3D
S214400FD000290CBF022200224FF4806300F000B8C4
S214400FE02DE9F0413A4C26680D46044690461F4689
S214400FF016B1B36B002B3CD0B8F1020F2FD8002FA0
S2144010002DDB2146304600F021F9A189002363609C
S214401010A3610B0627D421F0830189B2B8F1020FF1
S214401020A1812AD0002D36D0B8F1010F11D089B257
S21440103001F00800274BF36380B2256025616761A5
S21440104078B111F0030F18BF0027A7600020BDE855
S214401050F08141F001017B42A181A361E7E74FF0B7
S214401060FF30BDE8F0812169304600F0F1F9A189F2
S214401070D1E7304600F07EF9BEE7002004F1430396
S21440108041F0020100250122A181A5602360236171
S2144010906261BDE8F081002F08BF4FF48067384694
S2144010A000F0D8FA054628B1A18941F0800189B2FE
S2144010B0A181B9E74FF4806000F0CCFA054618B934
S2144010C0A1894FF0FF30D9E74FF48067ECE700BFC7
S2144010D03004002079124000024B13B1024800F061
S2144010E005B8704700000000891340000146002004
S2144010F00246034600F0B4BD8B899AB22DE9F04112
S2144011000D46110780463CD46A6843F40063002AC3
S214401110AB8165DDAE6A002E4BD09BB203F48052A5
S214401120002192B2D8F80040C8F80010002A5BD0E0
S2144011302A6D5F0705D569682B6B521A0BB1EB6BAE
S214401140D21A4046E9690023B047461C56D0AB89C0
S2144011502A692A6023F400639BB200226A60DA049C
S214401160AB813BD4296BC8F8004011B305F140036E
S214401170994202D0404600F06BF900202863BDE853
S214401180F0812E69AEB12C682E6091070CBF6B695A
S2144011900023A41BAB600AE0324623466F6AE96927
S2144011A04046B8470028A4EB0004064404DD002C63
S2144011B0F2DC0020BDE8F081AB8943F04003AB8110
S2144011C04FF0FF30BDE8F081AB892A69696023F4AF
S2144011D000639BB2AB81DB042A60C3D52865C1E7B8
S2144011E0EA6B002A96DCE4E701234046E969B0470B
S2144011F0431C024619D0AB89AE6A9AE7D8F800106D
S2144012000029E1D01D2907D0162905D0AB8943F027
S2144012104003AB81BDE8F081AB892A692A6023F49C
S21440122000630022AB816A609CE7D8F80030002B50
S214401230E1D01D2B07D0162B05D0AB8943F04003D9
S214401240AB81BDE8F081C8F80040B2E710B504466F
S21440125082B008B1836B53B1B1F90C0008B902B043
S21440126010BD204602B0BDE81040FFF745BF0191D3
S21440127000F080F80199EFE7014900F0C1B900BFDE
S214401280291D40002DE9F04F354B4568C3630024C7
S214401290074600F53B7204230321C0F8E412C0F869
S2144012A0E822C0F8E04283B02C606C60AC606C66AC
S2144012B0EC812C616C61AC61AB81214605F15C0030
S2144012C00822FFF737FEBE68DFF898B0DFF898A030
S2144012D0DFF89890DFF89880C5F820B001230922FF
S2144012E0C5F824A0C5F82890C5F82C80ED612146A5
S2144012F0F381B28106F15C0034607460B460746659
S21440130034617461B46108220193FFF713FEFD68EF
S214401310F66112200222C6F820B0C6F824A0C6F80D
S2144013202890C6F82C802146A881EA812C606C6003
S214401330AC606C662C616C61AC6105F15C000822A7
S214401340FFF7F8FD019BED61C5F820B0C5F824A075
S214401350C5F82890C5F82C80BB6303B0BDE8F08F75
S21440136079124000B51B4000D91B4000111C4000BC
S214401370311C4000836B03B17047FFF783BF00BF4B
S214401380704700BF704700BF38B5084B084DED1A90
S214401390AC1018BFED1805D0013C55F8043D9847F1
S2144013A0002CF9D1BDE8384000F036BD241E400080
S2144013B0281E4000F8B5234F0C46064600F0E4FBD6
S2144013C0BB685D6825F00305291B01F6EF7121F423
S2144013D07F6121F00F01A1F58054B4F5805F07DBF3
S2144013E03046002100F0D4FBBB682B44984204D022
S2144013F0304600F0CBFB0020F8BD3046614200F09E
S214401400C7FB01300DD0104BBA6819682D1B45F04C
S21440141001053046091B5560196000F0B7FB0120F6
S214401420F8BD3046002100F0B3FBBA68831A0F2B94
S214401430DEDD064C0449246843F00103001B53607C
S2144014400860D5E734040020E80800204008002063
S21440145000294ED02DE9F0410C46804600F094FB22
S21440146054F8047C624927F00102A4F10805AB1841
S2144014708E6858689E4220F003005AD0FE07586097
S2144014800BD454F8087CED1B01F1080EAC6874458B
S2144014903A4467D0EF68E760BC601C186468E407AD
S2144014A00CD4544F9C68BC4202447CD0D868E06060
S2144014B042F0010384606B60AA5003E042F00103EF
S2144014C06B60AA50B2F5007F14D2D20801EBC2037B
S2144014D048689F68AF609210012404FA02F21043F5
S2144014E0EB6048609D60FD604046BDE8F04100F01E
S2144014F04DBB7047530A042B47D8930903F1380471
S214401500600001EB80003A498368834243D05968C3
S21440151021F00301914202D99B689842F7D1DA68DC
S214401520EA60AB6040469560DD60BDE8F04100F0A3
S2144015302DBBFF07024407D454F8083CED1A1A4462
S214401540A868EB68C36098602B4B1B6842F00100AC
S2144015509A4268608D60C7D3284B40461968FFF7AB
S21440156029FFC1E719184968C90709D4D9689B6893
S214401570024442F00100D9608B606860AA50B3E72D
S21440158042F001036B60AA50AEE7142B14D803F167
S2144015905B046000B5E74A68A4100120A0400243FF
S2144015A04A601A46BCE742F001034D610D61EC60AB
S2144015B0AC606B60AA5097E7542B04D8130B03F12A
S2144015C06E0460009DE7B3F5AA7F04D8D30B03F101
S2144015D07704600095E740F25450834204D8930C59
S2144015E003F17C0460008CE7FC207E2489E700BF82
S2144015F0340400203C0400203C080020E40800207E
S2144016002DE9F84310F538771FD0884606464FF048
S21440161000097D68BC68013D11D4A389012B05F102
S214401620FF3508D9B4F90E3001332146304602D092
S214401630C04749EA00096B1C04F16804EDD13F68D5
S214401640002FE6D14846BDE8F883B9464846BDE88F
S214401650F88300BF024B0146186800F003B800BF8D
S214401660300400202DE9F04F01F10B05162D83B014
S214401670064627D935F0070500F1B680A94200F2A4
S214401680B38000F081FAB5F5FC7F22D2C24FE8085D
S21440169007EBC003DC689C4200F0C8816368E168E1
S2144016A0A56823F00303234430465A68E96042F0B5
S2144016B001028D605A6000F069FA0834204603B093
S2144016C0BDE8F08F102900F28F8000F05DFA1025FB
S2144016D0DCE7680A00F08F80042800F25481A809ED
S2144016E038304100AC4F07EB8101CC68A14206D1AF
S2144016F00CE0002A80F28280E468A14206D063684B
S21440170023F003035A1B0F2AF3DD01380130A249A8
S2144017103C6901F1080E744500F07D81636823F052
S21440172003035A1B0F2A00F36381002AC1F814E012
S214401730C1F810E073DAB3F5007F80F03981DB083A
S21440174001EBC3084FEAA30C4A68D8F80890C4F8DF
S2144017500890012303FA0CF31343C4F80C804B6043
S214401760C8F80840C9F80C408210012494409C42B6
S21440177062D8234206D120F003006400234200F1E1
S2144017800400FAD007EBC008C4468146DCF80C30AB
S2144017909C4507D141E1002980F25181DB689C4598
S2144017A000F03B815A6822F00302511B0F29F2DDFC
S2144017B01C46D3F80CC054F8088F5A1945F0010956
S2144017C041F00105C3F804903046C8F80CC0CCF888
S2144017D008807A613A61C2F80CE0C2F808E05560C9
S2144017E0515000F0D3F969E700240C2320463360BB
S2144017F003B0BDE8F08F7E213F2073E72344E168C5
S2144018005A68A56842F00102E96030468D605A6029
S21440181000F0BCF90834204603B0BDE8F08F2344FE
S21440182030465A6842F001025A6000F0AFF9083478
S214401830204603B0BDE8F08FBC68636823F0030819
S214401840454504D8C5EB08030F2B00F38C80534B5B
S214401850DFF858A11A68DAF8003001332A4404EB5E
S214401860080B00F0508102F580520F3222F47F625E
S21440187022F00F0211463046019200F089F9B0F18D
S214401880FF3F8146019A00F04781834500F2EE8093
S214401890434B1968CB451144196000F04281DAF891
S2144018A00000DFF808E101301BBFCBEB090B5944C1
S2144018B0CEF80090196019F0070100F00781C1F1D9
S2144018C00800C1F58051814408314A44C2F30B02F6
S2144018D0C2EB010A51463046019300F059F9431CC9
S2144018E0019B00F02C81C9EB0002524442F00102F9
S2144018F01968C7F808905144BC42C9F804201960DA
S214401900DFF89CA016D0B8F10F0F40F2EE80626868
S214401910A8F10C0323F00703E01802F001024FF091
S214401920050E1A430F2B6260C0F804E0C0F808E0CA
S21440193000F209811B4BBC681A68914288BF196047
S214401940194B1A689142626888BF196022F00302F8
S2144019509542A2EB050301D80F2B04DC304600F07D
S21440196015F90024AAE6621943F0010345F0010583
S21440197065603046BA60536000F008F90834204687
S21440198003B0BDE8F08F142868D9542800F2978039
S214401990280B6E304100A5E634040020E408002001
S2144019A0E8080020E0080020DC080020400800206E
S2144019B05A0A042A55D9142A00F2A7805B324FEA05
S2144019C0420C07EB8C0CDFF8BC81DCF80810614554
S2144019D07FD04A6822F00302934202D289688C453F
S2144019E0F7D1CA687B68E260A1609460CC60BBE6D1
S2144019F0631942F0010745F00105656030464B61CA
S214401A000B61C3F80CE0C3F808E05F609A500834F6
S214401A1000F0BCF852E64B68A6E609F1010919F059
S214401A20030F0CF1080C7FF4B1AE2CE004F1080370
S214401A306469A34208BF02303FF469AE2EE61A44FA
S214401A401C465168DB6854F8085F41F0010151605C
S214401A503046EB609D6000F099F82FE65B30410021
S214401A6040E69A0938324FEA420CAAE7BC42454B58
S214401A703FF40EAF9C68626822F0030268E7D8F82D
S214401A80008098457CD110F0030FA8F1080300F1C0
S214401A90FF30F4D17B6823EA04037B6064009C42F9
S214401AA03FF6CAAE002C3FF4C7AE234248467FF40A
S214401AB069AE6400234200F10400FAD062E6B0F555
S214401AC0AA7F18D8E80B773041000BE64FF48051D8
S214401AD0FBE6D8F8043092104FF0010C0CFA02F2F4
S214401AE01343C8F804300A467DE70123C9F804309A
S214401AF04C4600222CE740F2545398421CD8A80C7F
S214401B007C304100EEE51032B4E6542A23D81A0B56
S214401B106E324FEA420C54E7BC68626822F0030219
S214401B2016E7CBF30B0000287FF4B9AE4244BB68FF
S214401B3042F001025A60FDE6FC217E20D2E50122F9
S214401B404FF0000AD4E604F108013046FFF780FC67
S214401B50DAF80010EEE6B2F5AA7F04D8DA0B773250
S214401B604FEA420C2DE740F254518A4204D89A0C70
S214401B707C324FEA420C24E74FF0FC0C7E2220E7F2
S214401B807B688BE734040020704700BF704700BF77
S214401B9038B5074C0023054608462360FEF774FF19
S214401BA0431C00D038BD2368002BFBD02B6038BDCB
S214401BB03009002010B50C46B1F90E1000F00AF9B5
S214401BC0002803DB236D0344236510BDA38923F45B
S214401BD08053A38110BD00BF2DE9F04116468A8987
S214401BE01D46D3050C46074606D50022B1F90E1011
S214401BF0022300F0DBF8A289B4F90E1022F48052DA
S214401C00A281384632462B46BDE8F04100F014B873
S214401C1010B50C46B1F90E1000F0C8F8A389421C66
S214401C200EBF23F4805343F480532065A38110BD38
S214401C30B1F90E1000F066B870B5084C064600259F
S214401C40084611461A462560FEF7BEFA431C00D0E9
S214401C5070BD2368002BFBD0336070BD3009002078
S214401C602DE9F047254C2568D5F848410646884674
S214401C7092469946CCB360681F2818DC431C7EB158
S214401C8004EB80050121C5F888A0D4F8887101FAD4
S214401C9000F21743022EC4F88871C5F808911ED08A
S214401CA00230636044F820800020BDE8F087144B83
S214401CB003B34FF4C870FFF7CDFC0446D0B1D5F857
S214401CC04831002780E88800C5F848413846012357
S214401CD0C4F88871C4F88C71002EE1D0D0E7D4F8EF
S214401CE08C110A43C4F88C21DAE705F5A674C5F8CA
S214401CF04841C0E74FF0FF30BDE8F087001E400087
S214401D005516400038B5074C002305460846236064
S214401D10FEF7D4FE431C00D038BD2368002BFBD012
S214401D202B6038BD3009002000293DD070B50546EF
S214401D300C4608B1836B7BB3B4F90C300BB900206A
S214401D4070BD28462146FFF7D7F9E36A064633B109
S214401D502846E16998470028B8BF4FF0FF36A38968
S214401D601B061CD4216B41B104F14003994202D0BA
S214401D702846FFF76DFB00232363616C21B128469C
S214401D80FFF766FB00236364FFF7FAFA0023A3819C
S214401D90FFF7F8FA304670BDFFF7ECFACCE7284676
S214401DA02169FFF755FBDDE70020704770B5084C0A
S214401DB006460025084611461A462560FEF782FE6E
S214401DC0431C00D070BD2368002BFBD0336070BD31
S214401DD03009002070B5084C0646002508461146D6
S214401DE01A462560FEF7D2F9431C00D070BD236822
S214401DF0002BFBD0336070BD30090020430000004C
S214401E0008000020F8B500BFF8BC08BC9E467047E6
S214401E10D9104000F1004000F8B500BFF8BC08BC3F
S20C401E209E467047CD004000CD
S214401E2800093D000000000000000000F402002009
S214401E385C030020C40300200000000000000000EF
S214401E480000000000000000000000000000000045
S214401E58000000000000000000000000FC1D4000DC
S214401E680000000000000000000000000000000025
S214401E780000000000000000000000000000000015
S214401E880000000000000000000000000000000005
S214401E9800000000000000000000000000000000F5
S214401EA800000000000000000000000000000000E5
S214401EB800000000000000000000000000000000D5
S214401EC800000000000000000000000000000000C5
S214401ED801000000000000000E33CDAB34126DE662
S214401EE8ECDE05000B0000000000000000000000CB
S214401EF80000000000000000000000000000000095
S214401F080000000000000000000000000000000084
S214401F180000000000000000000000000000000074
S214401F280000000000000000000000000000000064
S21440225808000020000000000000000034040020B1
S214402268340400203C0400203C04002044040020A1
S214402278440400204C0400204C0400205404002051
S214402288540400205C0400205C0400206404002001
S214402298640400206C0400206C04002074040020B1
S2144022A8740400207C0400207C0400208404002061
S2144022B8840400208C0400208C0400209404002011
S2144022C8940400209C0400209C040020A4040020C1
S2144022D8A4040020AC040020AC040020B404002071
S2144022E8B4040020BC040020BC040020C404002021
S2144022F8C4040020CC040020CC040020D4040020D1
S214402308D4040020DC040020DC040020E404002080
S214402318E4040020EC040020EC040020F404002030
S214402328F4040020FC040020FC04002004050020DF
S214402338040500200C0500200C050020140500208C
S214402348140500201C0500201C050020240500203C
S214402358240500202C0500202C05002034050020EC
S214402368340500203C0500203C050020440500209C
S214402378440500204C0500204C050020540500204C
S214402388540500205C0500205C05002064050020FC
S214402398640500206C0500206C05002074050020AC
S2144023A8740500207C0500207C050020840500205C
S2144023B8840500208C0500208C050020940500200C
S2144023C8940500209C0500209C050020A4050020BC
S2144023D8A4050020AC050020AC050020B40500206C
S2144023E8B4050020BC050020BC050020C40500201C
S2144023F8C4050020CC050020CC050020D4050020CC
S214402408D4050020DC050020DC050020E40500207B
S214402418E4050020EC050020EC050020F40500202B
S214402428F4050020FC050020FC05002004060020DA
S214402438040600200C0600200C0600201406002087
S214402448140600201C0600201C0600202406002037
S214402458240600202C0600202C06002034060020E7
S214402468340600203C0600203C0600204406002097
S214402478440600204C0600204C0600205406002047
S214402488540600205C0600205C06002064060020F7
S214402498640600206C0600206C06002074060020A7
S2144024A8740600207C0600207C0600208406002057
S2144024B8840600208C0600208C0600209406002007
S2144024C8940600209C0600209C060020A4060020B7
S2144024D8A4060020AC060020AC060020B406002067
S2144024E8B4060020BC060020BC060020C406002017
S2144024F8C4060020CC060020CC060020D4060020C7
S214402508D4060020DC060020DC060020E406002076
S214402518E4060020EC060020EC060020F406002026
S214402528F4060020FC060020FC06002004070020D5
S214402538040700200C0700200C0700201407002082
S214402548140700201C0700201C0700202407002032
S214402558240700202C0700202C07002034070020E2
S214402568340700203C0700203C0700204407002092
S214402578440700204C0700204C0700205407002042
S214402588540700205C0700205C07002064070020F2
S214402598640700206C0700206C07002074070020A2
S2144025A8740700207C0700207C0700208407002052
S2144025B8840700208C0700208C0700209407002002
S2144025C8940700209C0700209C070020A4070020B2
S2144025D8A4070020AC070020AC070020B407002062
S2144025E8B4070020BC070020BC070020C407002012
S2144025F8C4070020CC070020CC070020D4070020C2
S214402608D4070020DC070020DC070020E407002071
S214402618E4070020EC070020EC070020F407002021
S214402628F4070020FC070020FC07002004080020D0
S214402638040800200C0800200C080020140800207D
S214402648140800201C0800201C080020240800202D
S214402658240800202C0800202C0800200000020037
S208402668FFFFFFFF2D
S80440083182
